:020000040000FA
:040000002EEF01F0EE
:08000800B0EF0BF0006EF80BE5
:10001000E832E832E83203D8006EEF141200000E26
:10002000FA6EFB6A00340E0BF926010C020C040C6C
:10003000080C100C200C400C800C0050D8A0E86A72
:10004000EF180014EF1A1200EFCFF3FFE82AF33293
:10005000E82EFDD7010ED8A0000E1200056A046E2E
:10006000FF0E0426D8A005260000D8A01200030E1B
:10007000016EE70E02D8F4D7016AFD0F006EFF0E85
:10008000000001D000260000D8A00126D8A0120050
:10009000F9D7106A116A126A136A0A6A0B6A0C6A43
:1000A0000D6A09500810071006102CE0200EF36EA0
:1000B000D89000360136023603360A360B360C3637
:1000C0000D3609500D5C08E108500C5C05E1075045
:1000D0000B5C02E106500A5C0FE306500A5E075013
:1000E000D8A0073C0B5E0850D8A0083C0C5E095015
:1000F000D8A0093C0D5ED880103611361236133662
:10010000F32ED6D71200076A066A100E106E01345D
:10011000063607360450065E0550D8A0053C075E3B
:1001200007E2045006260550D8B0053C0726D890B3
:1001300000360136102EEBD70050120000000000F0
:1001400000000100030001000000000000000000AA
:10015000010001000100010000000000000000009B
:10016000000003000100010000000000000000008A
:10017000000001000100030000000000000000007A
:100180000000030003000000000000000000000069
:100190000000020003000100000000000000000059
:1001A0000000010003000200000000004188DFFBA6
:1001B00041880000DF9B55A991CA00001E00120073
:1001C000120012001E0000000000000004000C00DD
:1001D000040004001E000000000000001E000200D9
:1001E0001E0010001E000000000000001E000200A3
:1001F0000E0002001E0000000000000012001200AD
:100200001E00020002000000000000001E0010009E
:100210001E0002001E000000000000001E00100072
:100220001E0012001E000000000000001E00020060
:100230000400080010000000000000001E00120072
:100240001E0012001E000000000000001E00120030
:100250001E0002000200000000000000188CA66AC8
:10026000A68EADEF0CF06850070DF3CF1AF0F4CF67
:100270001BF01C6A1D6A070E1A241E6E000E1B203E
:100280001F6E000E1C20206E000E1D20216E21C04E
:1002900003F020C002F01FC001F01EC000F0096A88
:1002A000086A076A0668F5DE0AC068F068C019F0D7
:1002B000120022C068F0D7DF19C068F012000F0EDC
:1002C000C16E070EB46E12001C6A1B5217E01AC0F2
:1002D00001F019C000F0056A0A0E046E14DF06C0B2
:1002E0001CF01AC001F019C000F0056A0A0E046E75
:1002F0000ADF196E01C01AF01B06E7D71200A66AC2
:10030000A680A8CF19F0800EA66EA92A1200F7DFEA
:1003100019C01AF0F4DF19C01BF01200A66AA684F7
:10032000550EA76EAA0EA76EA682A6B2FED7A694F9
:10033000800EA66EA92A120019C0A8FFEFDF1AC00E
:10034000A8FFECD71BC01EF01AC01DF0D8DF1EC0DE
:10035000EAFF1DC0E9FF19C0EFFF12001EC022F026
:100360001DC021F0D4DF22C0EAFF21C0E9FF1AC07E
:10037000EEFF1BC0EEFF120019C0A8FFCFD71CC0B4
:100380001AF01BC019F0D8D7A493D896A4A3D88686
:10039000FCE41200F9DFA4911200A48112001D6A8E
:1003A0001BC01EF01D501E5C11E3D8901D34216E41
:1003B000226A223621501924E96E22501A20EA6E50
:1003C000EE6AEE6A1D2A010E1D60ECD712004BDFAB
:1003D00019C026F0286A296A240E2826292A2650C0
:1003E000285CFAE39C6B292C29D0276A080E276029
:1003F00020D0D89027342C6E2D6A2D362C502224F4
:10040000E96E2D502320EA6ED8902734306E316A81
:100410003136010EF76E3C0EF66E3050F626315036
:10042000F7220900F5CFEEFF0900F5CFEEFF272AEE
:10043000DDD7040E996F9A6B9B6B37D1020E296240
:100440002AD0276A080E276020D0D89027342C6E37
:100450002D6A2D362C502224E96E2D502320EA6E71
:10046000D8902734306E316A3136010EF76E4C0E5B
:10047000F66E3050F6263150F7220900F5CFEEFF28
:100480000900F5CFEEFF272ADDD7040E996F9A6B8E
:10049000010E9B6F0AD1030E296229D0276A080E2C
:1004A000276020D0D89027342C6E2D6A2D362C5002
:1004B0002224E96E2D502320EA6ED8902734306E26
:1004C000316A3136010EF76E5C0EF66E3050F6264C
:1004D0003150F7220900F5CFEEFF0900F5CFEEFF0E
:1004E000272ADDD7040E996F9A6B9B6BDED0040E22
:1004F000296229D0276A080E276020D0D890273497
:100500002C6E2D6A2D362C502224E96E2D5023207E
:10051000EA6ED8902734306E316A3136010EF76EAC
:100520006C0EF66E3050F6263150F7220900F5CFEA
:10053000EEFF0900F5CFEEFF272ADDD7040E996FF5
:100540009A6B9B6BB2D0050E29622BD0276A080EDE
:10055000276020D0D89027342C6E2D6A2D362C5051
:100560002224E96E2D502320EA6ED8902734306E75
:10057000316A3136010EF76E7C0EF66E3050F6267B
:100580003150F7220900F5CFEEFF0900F5CFEEFF5D
:10059000272ADDD7030E996F010E9A6F020E9B6F0B
:1005A00084D0060E29622BD0276A080E276020D03F
:1005B000D89027342C6E2D6A2D362C502224E96ECB
:1005C0002D502320EA6ED8902734306E316A3136B0
:1005D000010EF76E8C0EF66E3050F6263150F72273
:1005E0000900F5CFEEFF0900F5CFEEFF272ADDD792
:1005F000040E996F010E9A6F010E9B6F56D0070E75
:1006000029622BD0276A080E276020D0D890273483
:100610002C6E2D6A2D362C502224E96E2D5023206D
:10062000EA6ED8902734306E316A3136010EF76E9B
:100630009C0EF66E3050F6263150F7220900F5CFA9
:10064000EEFF0900F5CFEEFF272ADDD7040E996FE4
:10065000010E9A6F010E9B6F28D0276A080E276043
:1006600020D0D89027342C6E2D6A2D362C50222481
:10067000E96E2D502320EA6ED8902734306E316A0F
:100680003136010EF76E3C0EF66E3050F6263150C4
:10069000F7220900F5CFEEFF0900F5CFEEFF272A7C
:1006A000DDD7040E996F9A6B9B6B1200216625D0E3
:1006B000226A1BC025F02250255C1EE3D89022340C
:1006C000286E296A293628501D24E96E29501E20DB
:1006D000EA6ED89022342C6E2D6A2D362C501924B7
:1006E000E16E2D501A20E26EE6CFEEFFE6CFEEFF70
:1006F000222A010E2260DFD73FD0212C3DD0226A72
:100700001BC025F02250255C37E3D8902234266E9A
:10071000276A273626501D24E16E27501E20E26EE0
:10072000E6CF2AF0E6CF2BF0D89022342C6E2D6A3B
:100730002D362C501924E16E2D501A20E26EE6CF92
:1007400030F0E6CF31F02A503010236E2B503110AC
:10075000246ED8902234286E296A293628501D2408
:10076000E96E29501E20EA6E23C0EEFF24C0EEFF82
:10077000222A010E2260C6D712001D663ED0010E4D
:10078000206E1EC021F02050215C36E31F6A1BC082
:1007900022F01F50225C2BE3D8901F34256E266A6E
:1007A000263625501924276E26501A20286ED890F8
:1007B0001F34296E2A6A2A3629501924E16E2A50DC
:1007C0001A20E26EE6CF2DF0E6CF2EF0D8902D3431
:1007D000236E2E34246E28C0EAFF27C0E9FF23C011
:1007E000EEFF24C0EEFF1F2A010E1F60D2D79A2B06
:1007F000202A010E2060C7D73FD01D2C3DD0010E0E
:10080000206E1EC021F02050215C36E31F6A1BC001
:1008100022F01F50225C2BE3D8901F34256E266AED
:10082000263625501924276E26501A20286ED89077
:100830001F34296E2A6A2A3629501924E16E2A505B
:100840001A20E26EE6CF2DF0E6CF2EF0D8902E30B3
:10085000246E2D30236E28C0EAFF27C0E9FF23C095
:10086000EEFF24C0EEFF1F2A010E1F60D2D79A07A9
:10087000202A010E2060C7D712001D662AD0070E5D
:100880001E6E1E521EE0D8901E34216E226A223641
:1008900021501924E96E22501A20EA6E1E04256E9A
:1008A000D8902534266E276A273626501924E16E03
:1008B00027501A20E26EE6CFEEFFE6CFEEFF1E06CF
:1008C000E0D71AC0EAFF19C0E9FFEE6AEE6A992B79
:1008D00033D01D2C31D01E6A070E1E6024D0D89054
:1008E0001E34216E226A223621501924E96E2250CC
:1008F0001A20EA6E1E28256E000E266A2622D8903F
:100900002534276E2634286E296A29362A6A27500C
:100910001924E16E28501A20E26EE6CFEEFFE6CFF2
:10092000EEFF1E2AD9D70E0E1924E96E000E1A20EA
:10093000EA6EEE6AEE6A990712001E6A1D6A1BC013
:100940001FF01D501F5C1EE3D8901D34206E216ADD
:10095000213620501924E16E21501A20E26EE14A1E
:10096000E22AE2CFEAFFE1CFE9FF246A800EEF142A
:10097000D8A42480242C02D0010E1E6E1D2A010E44
:100980001D60DFD71200010E1D6E1AC0E2FF19C0F4
:10099000E1FFE6CF20F0E6CF21F021502010D8B4BF
:1009A0001D6A1200010E1D6E0E0E1924E16E000E5E
:1009B0001A20E26EE6CF20F0E6CF21F02150201081
:1009C000D8B41D6A1200246A216A1BC025F0215088
:1009D000255C2FE3D8902134266E276A27362650CF
:1009E0001924E16E27501A20E26EE6CF2AF0E6CFF6
:1009F0002BF0D89021342C6E2D6A2D362C501D24CE
:100A0000E16E2D501E20E26EE6CF30F0E6CF31F0E1
:100A10002A503014226E2B503114236E225202E1E0
:100A2000235203E0010E246E04D0212A010E21601E
:100A3000CED71200020E9B6321D02C6A080E2C60C8
:100A40001CD0D8902C34306E316A313630501D2491
:100A5000E96E31501E20EA6ED8902C34346E356A1F
:100A6000353634501924E16E35501A20E26EE6CF47
:100A7000EEFFE6CFEEFF2C2AE1D708D1296A99C014
:100A800028F02B6A9AC02AF0276A266A2C6A080E78
:100A90002C600FD0D8902C34306E316A3136305003
:100AA0001D24E96E31501E20EA6EEE6AEE6A2C2A91
:100AB000EED79B2D03D09C2D01D0216A2C6A080E05
:100AC0002C60E4D02D6A100E2D60DED0D8902C342E
:100AD0002E6E2F6A2F362E501924E16E2F501A20B9
:100AE000E26E070E2D14336ED8902D30326ED890F2
:100AF0003232D89032323250E126000EE222E2CF7A
:100B0000EAFFE1CFE9FF335024EC00F0346E342CDF
:100B1000B9D0212C40D02A5028242E6E2B502920C9
:100B20002F6E000E2BBEFF0E306A29BE30683022B9
:100B3000316A30BE3106356A346A336A2DC032F00C
:100B400032502E5C366E33502F58376E345030583A
:100B5000386E35503158396E26C03AF027C03BF018
:100B6000000E3BBEFF0E3C6E3D6E3A50365C226E70
:100B70003B503758236E2F6A2CC02EF02A502E245B
:100B8000306E2B502F20316E2850305C246E29504F
:100B90003158256E3FD02F6A2DC02EF028502E24BC
:100BA000306E29502F20316E2A50305C226E2B502F
:100BB0003158236E2A5028242E6E2B5029202F6E58
:100BC000000E2BBEFF0E306A29BE30683022316A1B
:100BD00030BE3106356A346A336A2CC032F0325086
:100BE0002E5C366E33502F58376E34503058386E76
:100BF00035503158396E26C03AF027C03BF0000E10
:100C00003BBEFF0E3C6E3D6E3A50365C246E3B5050
:100C10003758256E23BE36D023BE05D0080E225C81
:100C2000000E23582FE225BE2DD025BE05D0100E74
:100C3000245C000E255826E2D89022342F6E2334EF
:100C4000306E316A3136326A2F501D24E96E3050D1
:100C50001E20EA6E070E2414376E2530366E2430BF
:100C6000356E36323532363235321F0E3616355045
:100C7000E9263650EA22375006EC00F0010EE83241
:100C80001DEC00F02D2A1FD72C2A19D712001F6A3D
:100C90001D6A080E1D602CD01E6A100E1E6026D024
:100CA000D8901D34206E216A213620501924E16E1F
:100CB00021501A20E26E070E1E14256ED8901E30A9
:100CC000246ED8902432D89024322450E126000E8D
:100CD000E222E2CFEAFFE1CFE9FF255024EC00F069
:100CE000266E262C01D01F2A1E2AD7D71D2AD1D71F
:100CF0001200010E3A6ECAEC01F037C01AF036C08D
:100D000019F039C01CF038C01BF017DE1E2C1FD0A4
:100D10003A6A37C01AF036C019F039C01CF038C032
:100D20001BF01E6A890E1D6E206A070E1F6E010ED3
:100D3000216E56EC03F037C023F036C022F039C0E4
:100D400025F038C024F0E7EC01F0A4895CD037C06E
:100D50001AF036C019F039C01CF038C01BF01D6AFB
:100D6000010E1E6EBDEC03F037C01AF036C019F04C
:100D700039C01CF038C01BF01E6A890E1D6E206A37
:100D8000070E1F6E20DE242C3ED03A6A37C01AF0C0
:100D900036C019F039C01CF038C01BF0010E1D6EB2
:100DA000010E1E6EBDEC03F037C01AF036C019F00C
:100DB00039C01CF038C01BF01E6A890E1D6E206AF7
:100DC000070E1F6E010E216E56EC03F0236A690EAA
:100DD000226E256A070E246EE7EC01F037C01AF088
:100DE00036C019F039C01CF038C01BF01E6A890EDD
:100DF0001D6E206A070E1F6EE3EC04F0242C02D057
:100E00003A6AA487A489CDEF01F081B04FD0D8967B
:100E1000A3B1D886D8B64AD0CAEC01F01A6A690ED6
:100E2000196E1C6A070E1B6EC3EC04F01D663CD0E5
:100E30001A6A690E196E1C6A070E1B6E1E6A790EFD
:100E40001D6E206A070E1F6E216A56EC03F01A6AA7
:100E5000790E196E1C6A070E1B6E010E1D6E3DEC9D
:100E600004F01A6A790E196E1C6A070E1B6E1E6A50
:100E7000890E1D6E206A070E1F6EE3EC04F02466D7
:100E800013D01A6A790E196E1C6A070E1B6E1E6A41
:100E9000690E1D6E206A070E1F6E216A56EC03F064
:100EA0000A0E9F6FA381A489CDEC01F081B24ED0D0
:100EB000D896A3B3D886D8B649D0CAEC01F01A6A3E
:100EC000690E196E1C6A070E1B6ED2EC04F01D66CB
:100ED0003BD01A6A690E196E1C6A070E1B6E1E6AD9
:100EE000790E1D6E206A070E1F6E216A56EC03F004
:100EF0001A6A790E196E1C6A070E1B6E1D6A3DEC8C
:100F000004F01A6A790E196E1C6A070E1B6E1E6AAF
:100F1000890E1D6E206A070E1F6EE3EC04F0246636
:100F200013D01A6A790E196E1C6A070E1B6E1E6AA0
:100F3000690E1D6E206A070E1F6E216A56EC03F0C3
:100F40000A0EA06FA383A489CDEC01F081B457D021
:100F5000D896A3B5D886D8B652D0CAEC01F01A6A92
:100F6000690E196E1C6A070E1B6E1E6A790E1D6EC5
:100F7000206A070E1F6E010E216E1AEC05F0CDECF3
:100F800001F01A6A690E196E1C6A070E1B6E7FDE6D
:100F90001FC03EF01A6A790E196E1C6A070E1B6E8E
:100FA00076DE3E501F622BD01A6A790E196E1C6ACB
:100FB000070E1B6E1E6A890E1D6E206A070E1F6EBD
:100FC000E3EC04F024661BD0CAEC01F01A6A790E37
:100FD000196E1C6A070E1B6E1E6A690E1D6E206A52
:100FE000070E1F6E216A56EC03F0CDEC01F09C2B2E
:100FF000020E9C6301D09C6B0A0EA16FA38581B683
:1010000010D0D896A3B7D8860CE40A0EA26FA38797
:10101000376A690E366E396A070E386E6ADE3A66CE
:10102000F7D712001EC0E2FF1DC0E1FFE7CF24F09A
:101030002404256E25C020F02028216E1F6A080E8A
:101040001F6046D0D8901F34236E246A2436235064
:101050001924256E24501A20266E070E2114286E9E
:10106000D8902130276ED8902732D8902732275039
:101070002526000E2622D8901F34296E2A6A2A3689
:1010800029501924E16E2A501A20E26E070E20140E
:101090002E6ED89020302D6ED8902D32D8902D32D3
:1010A0002D50E126000EE222E2CFEAFFE1CFE9FF78
:1010B0002E5024EC00F02F6E26C0EAFF25C0E9FF79
:1010C000285006EC00F02F301DEC00F01F2AB7D797
:1010D000205202E02006B0D71F6A080E1F600ED013
:1010E000D8901F34236E246A243623501924E96EC5
:1010F00024501A20EA6EEF901F2AEFD71200356AAB
:10110000100E35603FD0366A346A080E346026D03F
:10111000D8903434376E386A383637503024E16E20
:1011200038503120E26E070E35143C6ED8903530C1
:101130003B6ED8903B32D8903B323B50E126000EBC
:10114000E222E2CFEAFFE1CFE9FF3C5024EC00F0DD
:101150003D6E3D2C01D0362A342AD7D7080E366290
:101160000ED031C01AF030C019F033C01CF032C0BC
:101170001BF01E6A350E1D6E55DF9D4B9E2B366A89
:10118000352ABED71200CA949D92A66BA56BC70ED6
:10119000CB6E230ECA6ECC6A9D82CA84F28E120078
:1011A0005FEC01F00F0E936E8A6A946A8B6A956AFF
:1011B0008C6A926A110E896EF19E1A6A890E196EF6
:1011C0001C6A070E1B6ECFEC01F01A6A690E196ECD
:1011D0001C6A070E1B6ECFEC01F0996B9A6BA76B24
:1011E0009E6B9D6BA66BA56BA495A497A499A86B09
:1011F000A3919F6BA393A06BA395A16BA397A26BE5
:101200001200CAEC01F0196A080E196020D0D890BB
:1012100019341C6E1D6A1D3600EE69F01C50E9265B
:101220001D50EA22D8901934206E216A2136010E11
:10123000F76EAC0EF66E2050F6262150F72209000C
:10124000F5CFEEFF0900F5CFEEFF192ADDD7CDEC83
:1012500001F00D0E056EAC0E2FEF00F01AC0E2FF8C
:1012600019C0E1FFE7CF22F0226625D01F6A080EE1
:101270001F6020D0D8901F34226E236A233622505C
:101280001B24E96E23501C20EA6ED8901F34266E72
:10129000276A2736010EF76EBC0EF66E2650F6262C
:1012A0002750F7220900F5CFEEFF0900F5CFEEFF3A
:1012B0001F2ADDD766D1222C25D01F6A080E1F6099
:1012C00020D0D8901F34226E236A233622501B244C
:1012D000E96E23501C20EA6ED8901F34266E276AD0
:1012E0002736010EF76ECC0EF66E2650F6262750E6
:1012F000F7220900F5CFEEFF0900F5CFEEFF1F2A18
:10130000DDD73FD1020E226225D01F6A080E1F6072
:1013100020D0D8901F34226E236A233622501B24FB
:10132000E96E23501C20EA6ED8901F34266E276A7F
:101330002736010EF76EDC0EF66E2650F626275085
:10134000F7220900F5CFEEFF0900F5CFEEFF1F2AC7
:10135000DDD717D1030E226225D01F6A080E1F6049
:1013600020D0D8901F34226E236A233622501B24AB
:10137000E96E23501C20EA6ED8901F34266E276A2F
:101380002736010EF76EEC0EF66E2650F626275025
:10139000F7220900F5CFEEFF0900F5CFEEFF1F2A77
:1013A000DDD7EFD0040E226225D01F6A080E1F6021
:1013B00020D0D8901F34226E236A233622501B245B
:1013C000E96E23501C20EA6ED8901F34266E276ADF
:1013D0002736010EF76EFC0EF66E2650F6262750C5
:1013E000F7220900F5CFEEFF0900F5CFEEFF1F2A27
:1013F000DDD7C7D0050E226225D01F6A080E1F60F8
:1014000020D0D8901F34226E236A233622501B240A
:10141000E96E23501C20EA6ED8901F34266E276A8E
:101420002736020EF76E0C0EF66E2650F626275063
:10143000F7220900F5CFEEFF0900F5CFEEFF1F2AD6
:10144000DDD79FD0060E226225D01F6A080E1F60CE
:1014500020D0D8901F34226E236A233622501B24BA
:10146000E96E23501C20EA6ED8901F34266E276A3E
:101470002736020EF76E1C0EF66E2650F626275003
:10148000F7220900F5CFEEFF0900F5CFEEFF1F2A86
:10149000DDD777D0070E226225D01F6A080E1F60A5
:1014A00020D0D8901F34226E236A233622501B246A
:1014B000E96E23501C20EA6ED8901F34266E276AEE
:1014C0002736020EF76E2C0EF66E2650F6262750A3
:1014D000F7220900F5CFEEFF0900F5CFEEFF1F2A36
:1014E000DDD74FD0080E226225D01F6A080E1F607C
:1014F00020D0D8901F34226E236A233622501B241A
:10150000E96E23501C20EA6ED8901F34266E276A9D
:101510002736020EF76E3C0EF66E2650F626275042
:10152000F7220900F5CFEEFF0900F5CFEEFF1F2AE5
:10153000DDD727D0090E226224D01F6A080E1F6053
:1015400020D0D8901F34226E236A233622501B24C9
:10155000E96E23501C20EA6ED8901F34266E276A4D
:101560002736020EF76E4C0EF66E2650F6262750E2
:10157000F7220900F5CFEEFF0900F5CFEEFF1F2A95
:10158000DDD71200CAEC01F01A6A790E196E1C6AD6
:10159000070E1B6ECFEC01F01A6A690E196E1C6AF9
:1015A000070E1B6ECFEC01F01A6A890E196E1C6AC9
:1015B000070E1B6ECFEC01F0010E346E040E34608A
:1015C00047D033C0E2FF32C0E1FFE6CF19F0E6CFEB
:1015D0001AF034C01BF064EC01F01CC035F01A6A3C
:1015E000350E196E1C6A790E1B6E1E6A070E1D6E73
:1015F00035DE020E34620CD01A6A790E196E1C6A3E
:10160000070E1B6E1D6A050E1E6EBDEC03F00ED09C
:10161000030E34620BD01A6A790E196E1C6A070E1B
:101620001B6E1D6A0A0E1E6EBDEC03F01A6A790E5F
:10163000196E1C6A070E1B6E1E6A690E1D6E206AEB
:10164000070E1F6E010E216E56EC03F0342AB6D73A
:10165000CDEC01F00A0E2EEC00F081A6FBD781B68E
:10166000FED70A0E2EEC00F081A6FBD71200A96A65
:101670001B6A3A0E1A6EA2EC01F0770E3A620CD099
:10168000010EA96E1E6A3B0E1D6EAEEC01F0336AB0
:101690003B0E326E77DF11D03C6A3B6AA96A770E47
:1016A000196EBCEC01F03CC01CF03BC01BF0BFEC61
:1016B00001F0336A3B0E326E65DF1200010EA96E37
:1016C0001E6A230E1D6EAEEC01F09D51235C9E51EF
:1016D000245808E2010EA96E9EC01CF09DC01BF0AC
:1016E000BFEC01F01200D0EC08F0A481C3EC08F0CC
:1016F00001EC09F0BCDFCAEC01F0D0EC08F0C3EC5F
:1017000008F0CDEC01F0236A690E226E256A070EFF
:10171000246EE7EC01F0D896A4A5D88609E4A49538
:10172000376A690E366E396A070E386E79EC06F044
:10173000D896A4A9D88608E4316A890E306E336A37
:10174000070E326E7FEC08F005EC07F0A86BD89618
:10175000A4A7D886E0E4B2DF336A9D0E326E12D7BA
:10176000E9CF3FF0EACF40F0E1CF41F0E2CF42F0E5
:1017700000EE43F0E16AE26A190EE6CFEEFFE82ED2
:10178000FCD7F3CF5CF0F4CF5DF09EA2D0D09E9258
:10179000020EA527000EA623A651030AE80ED8B410
:1017A000A51911E1A66BA56BA82B1E0EA8630BD083
:1017B000D38ED382D3909268936894689568CA94C4
:1017C0008F0ED3160300D896A3A1D88607E49F678F
:1017D00003D081B0A39102D0020E9F5FD896A3A33D
:1017E000D88607E4A06703D081B2A39302D0020E8B
:1017F000A05FD896A3A5D88607E4A16703D081B4DB
:10180000A39502D0020EA15FD896A3A7D88607E4BD
:10181000A26703D081B6A39702D0020EA25FA651A1
:10182000030A200ED8B4A519D8B4A485D896A4A1CB
:10183000D886D8B67CD00F0E8010896EF00E81103D
:101840008A6ED890A7355E6E5F6A5F3610EE69F0DB
:101850005E50E1265F50E222E7CF62F0D890A735D4
:10186000636E646A643610EE89F06350E12664505A
:10187000E222E7CF67F0675062108B6ED890A735F1
:101880005E6E5F6A5F3610EE69F05E50E1265F5073
:10189000E222E14AE22AE7CF62F0D890A735636EF0
:1018A000646A643610EE89F06350E1266450E222E7
:1018B000E14AE22AE7CF67F0675062108C6E040EAF
:1018C000A76118D0070EA715606ED890A7315F6E7C
:1018D000D8905F32D8905F320FEE80F05F50E926EB
:1018E000000EEA22605006EC00F0000EE8321DEC1B
:1018F00000F017D0070EA715606ED890A7315F6E65
:10190000D8905F32D8905F320FEE81F05F50E926B9
:10191000000EEA22605006EC00F0000EE8321DECEA
:1019200000F0A72B080EA76301D0A76BA4835DC0AE
:10193000F4FF5CC0F3FFE96AEA6A10EE43F0190EA7
:10194000E6CFEEFFE82EFCD742C0E2FF41C0E1FF48
:1019500040C0EAFF3FC0E9FF1100D08E7C0ED36E7D
:101960009B8C770E226E59EC01F0BDDEFED7030092
:02197000FED7A0
:020000040030CA
:03000100091A0ECB
:02000500018177
:060008000FC00FE00F40E5
:00000001FF
